{
  "_format": "hh-sol-artifact-1",
  "contractName": "SpaceCoin",
  "sourceName": "contracts/SpaceCoin.sol",
  "abi": [
    {
      "inputs": [
        {
          "internalType": "address",
          "name": "_owner",
          "type": "address"
        },
        {
          "internalType": "address",
          "name": "_treasury",
          "type": "address"
        }
      ],
      "stateMutability": "nonpayable",
      "type": "constructor"
    },
    {
      "anonymous": false,
      "inputs": [
        {
          "indexed": true,
          "internalType": "address",
          "name": "owner",
          "type": "address"
        },
        {
          "indexed": true,
          "internalType": "address",
          "name": "spender",
          "type": "address"
        },
        {
          "indexed": false,
          "internalType": "uint256",
          "name": "value",
          "type": "uint256"
        }
      ],
      "name": "Approval",
      "type": "event"
    },
    {
      "anonymous": false,
      "inputs": [
        {
          "indexed": true,
          "internalType": "address",
          "name": "from",
          "type": "address"
        },
        {
          "indexed": true,
          "internalType": "address",
          "name": "to",
          "type": "address"
        },
        {
          "indexed": false,
          "internalType": "uint256",
          "name": "value",
          "type": "uint256"
        }
      ],
      "name": "Transfer",
      "type": "event"
    },
    {
      "inputs": [
        {
          "internalType": "address",
          "name": "owner",
          "type": "address"
        },
        {
          "internalType": "address",
          "name": "spender",
          "type": "address"
        }
      ],
      "name": "allowance",
      "outputs": [
        {
          "internalType": "uint256",
          "name": "",
          "type": "uint256"
        }
      ],
      "stateMutability": "view",
      "type": "function"
    },
    {
      "inputs": [
        {
          "internalType": "address",
          "name": "spender",
          "type": "address"
        },
        {
          "internalType": "uint256",
          "name": "amount",
          "type": "uint256"
        }
      ],
      "name": "approve",
      "outputs": [
        {
          "internalType": "bool",
          "name": "",
          "type": "bool"
        }
      ],
      "stateMutability": "nonpayable",
      "type": "function"
    },
    {
      "inputs": [
        {
          "internalType": "address",
          "name": "account",
          "type": "address"
        }
      ],
      "name": "balanceOf",
      "outputs": [
        {
          "internalType": "uint256",
          "name": "",
          "type": "uint256"
        }
      ],
      "stateMutability": "view",
      "type": "function"
    },
    {
      "inputs": [],
      "name": "decimals",
      "outputs": [
        {
          "internalType": "uint8",
          "name": "",
          "type": "uint8"
        }
      ],
      "stateMutability": "view",
      "type": "function"
    },
    {
      "inputs": [
        {
          "internalType": "address",
          "name": "spender",
          "type": "address"
        },
        {
          "internalType": "uint256",
          "name": "subtractedValue",
          "type": "uint256"
        }
      ],
      "name": "decreaseAllowance",
      "outputs": [
        {
          "internalType": "bool",
          "name": "",
          "type": "bool"
        }
      ],
      "stateMutability": "nonpayable",
      "type": "function"
    },
    {
      "inputs": [
        {
          "internalType": "bool",
          "name": "_transferTaxOn",
          "type": "bool"
        }
      ],
      "name": "enableTransferTax",
      "outputs": [],
      "stateMutability": "nonpayable",
      "type": "function"
    },
    {
      "inputs": [
        {
          "internalType": "address",
          "name": "spender",
          "type": "address"
        },
        {
          "internalType": "uint256",
          "name": "addedValue",
          "type": "uint256"
        }
      ],
      "name": "increaseAllowance",
      "outputs": [
        {
          "internalType": "bool",
          "name": "",
          "type": "bool"
        }
      ],
      "stateMutability": "nonpayable",
      "type": "function"
    },
    {
      "inputs": [],
      "name": "name",
      "outputs": [
        {
          "internalType": "string",
          "name": "",
          "type": "string"
        }
      ],
      "stateMutability": "view",
      "type": "function"
    },
    {
      "inputs": [],
      "name": "owner",
      "outputs": [
        {
          "internalType": "address",
          "name": "",
          "type": "address"
        }
      ],
      "stateMutability": "view",
      "type": "function"
    },
    {
      "inputs": [],
      "name": "symbol",
      "outputs": [
        {
          "internalType": "string",
          "name": "",
          "type": "string"
        }
      ],
      "stateMutability": "view",
      "type": "function"
    },
    {
      "inputs": [],
      "name": "totalSupply",
      "outputs": [
        {
          "internalType": "uint256",
          "name": "",
          "type": "uint256"
        }
      ],
      "stateMutability": "view",
      "type": "function"
    },
    {
      "inputs": [
        {
          "internalType": "address",
          "name": "to",
          "type": "address"
        },
        {
          "internalType": "uint256",
          "name": "amount",
          "type": "uint256"
        }
      ],
      "name": "transfer",
      "outputs": [
        {
          "internalType": "bool",
          "name": "",
          "type": "bool"
        }
      ],
      "stateMutability": "nonpayable",
      "type": "function"
    },
    {
      "inputs": [
        {
          "internalType": "address",
          "name": "from",
          "type": "address"
        },
        {
          "internalType": "address",
          "name": "to",
          "type": "address"
        },
        {
          "internalType": "uint256",
          "name": "amount",
          "type": "uint256"
        }
      ],
      "name": "transferFrom",
      "outputs": [
        {
          "internalType": "bool",
          "name": "",
          "type": "bool"
        }
      ],
      "stateMutability": "nonpayable",
      "type": "function"
    },
    {
      "inputs": [],
      "name": "transferTaxOn",
      "outputs": [
        {
          "internalType": "bool",
          "name": "",
          "type": "bool"
        }
      ],
      "stateMutability": "view",
      "type": "function"
    },
    {
      "inputs": [],
      "name": "treasury",
      "outputs": [
        {
          "internalType": "address",
          "name": "",
          "type": "address"
        }
      ],
      "stateMutability": "view",
      "type": "function"
    }
  ],
  "bytecode": "0x60806040526005805460ff191690553480156200001b57600080fd5b5060405162000dfb38038062000dfb8339810160408190526200003e91620002b5565b6040518060400160405280600981526020016829b830b1b2a1b7b4b760b91b8152506040518060400160405280600381526020016253504360e81b815250816003908051906020019062000094929190620001f2565b508051620000aa906004906020840190620001f2565b505060058054610100600160a81b0319166101006001600160a01b038681169190910291909117909155600680546001600160a01b0319169184169190911790555062000102336969e10de76676d08000006200010a565b505062000351565b6001600160a01b038216620001655760405162461bcd60e51b815260206004820152601f60248201527f45524332303a206d696e7420746f20746865207a65726f206164647265737300604482015260640160405180910390fd5b8060026000828254620001799190620002ed565b90915550506001600160a01b03821660009081526020819052604081208054839290620001a8908490620002ed565b90915550506040518181526001600160a01b038316906000907fddf252ad1be2c89b69c2b068fc378daa952ba7f163c4a11628f55a4df523b3ef9060200160405180910390a35050565b828054620002009062000314565b90600052602060002090601f0160209004810192826200022457600085556200026f565b82601f106200023f57805160ff19168380011785556200026f565b828001600101855582156200026f579182015b828111156200026f57825182559160200191906001019062000252565b506200027d92915062000281565b5090565b5b808211156200027d576000815560010162000282565b80516001600160a01b0381168114620002b057600080fd5b919050565b60008060408385031215620002c957600080fd5b620002d48362000298565b9150620002e46020840162000298565b90509250929050565b600082198211156200030f57634e487b7160e01b600052601160045260246000fd5b500190565b600181811c908216806200032957607f821691505b602082108114156200034b57634e487b7160e01b600052602260045260246000fd5b50919050565b610a9a80620003616000396000f3fe608060405234801561001057600080fd5b50600436106100c55760003560e01c806306fdde03146100ca578063095ea7b3146100e857806318160ddd1461010b57806323b872dd1461011d578063313ce56714610130578063395093511461013f57806361d027b31461015257806370a082311461017d5780638da5cb5b146101a657806395d89b41146101be578063a457c2d7146101c6578063a9059cbb146101d9578063b87edcad146101ec578063dd62ed3e14610201578063fb4b0d6814610214575b600080fd5b6100d2610221565b6040516100df9190610855565b60405180910390f35b6100fb6100f63660046108c6565b6102b3565b60405190151581526020016100df565b6002545b6040519081526020016100df565b6100fb61012b3660046108f0565b6102cb565b604051601281526020016100df565b6100fb61014d3660046108c6565b61033f565b600654610165906001600160a01b031681565b6040516001600160a01b0390911681526020016100df565b61010f61018b36600461092c565b6001600160a01b031660009081526020819052604090205490565b6005546101659061010090046001600160a01b031681565b6100d2610361565b6100fb6101d43660046108c6565b610370565b6100fb6101e73660046108c6565b6103f0565b6101ff6101fa36600461094e565b610453565b005b61010f61020f366004610970565b6104be565b6005546100fb9060ff1681565b606060038054610230906109a3565b80601f016020809104026020016040519081016040528092919081815260200182805461025c906109a3565b80156102a95780601f1061027e576101008083540402835291602001916102a9565b820191906000526020600020905b81548152906001019060200180831161028c57829003601f168201915b5050505050905090565b6000336102c18185856104e9565b5060019392505050565b6000336102d985828561060d565b60055460ff161561032957610305858560646102f68760626109f4565b6103009190610a13565b610687565b6006546103249086906001600160a01b031660646102f68760026109f4565b610334565b610334858585610687565b506001949350505050565b6000336102c181858561035283836104be565b61035c9190610a35565b6104e9565b606060048054610230906109a3565b6000338161037e82866104be565b9050838110156103e35760405162461bcd60e51b815260206004820152602560248201527f45524332303a2064656372656173656420616c6c6f77616e63652062656c6f77604482015264207a65726f60d81b60648201526084015b60405180910390fd5b61033482868684036104e9565b600554600090339060ff1615610448576000606461040f8560026109f4565b6104199190610a13565b905061042a82866103008488610a4d565b6006546104429083906001600160a01b031683610687565b506102c1565b6102c1818585610687565b60055461010090046001600160a01b031633146104ab5760405162461bcd60e51b81526020600482015260166024820152751bdb9b1e481bdddb995c8818d85b88191bc81d1a185d60521b60448201526064016103da565b6005805460ff1916911515919091179055565b6001600160a01b03918216600090815260016020908152604080832093909416825291909152205490565b6001600160a01b03831661054b5760405162461bcd60e51b8152602060048201526024808201527f45524332303a20617070726f76652066726f6d20746865207a65726f206164646044820152637265737360e01b60648201526084016103da565b6001600160a01b0382166105ac5760405162461bcd60e51b815260206004820152602260248201527f45524332303a20617070726f766520746f20746865207a65726f206164647265604482015261737360f01b60648201526084016103da565b6001600160a01b0383811660008181526001602090815260408083209487168084529482529182902085905590518481527f8c5be1e5ebec7d5bd14f71427d1e84f3dd0314c0f7b2291e5b200ac8c7c3b925910160405180910390a3505050565b600061061984846104be565b9050600019811461068157818110156106745760405162461bcd60e51b815260206004820152601d60248201527f45524332303a20696e73756666696369656e7420616c6c6f77616e636500000060448201526064016103da565b61068184848484036104e9565b50505050565b6001600160a01b0383166106eb5760405162461bcd60e51b815260206004820152602560248201527f45524332303a207472616e736665722066726f6d20746865207a65726f206164604482015264647265737360d81b60648201526084016103da565b6001600160a01b03821661074d5760405162461bcd60e51b815260206004820152602360248201527f45524332303a207472616e7366657220746f20746865207a65726f206164647260448201526265737360e81b60648201526084016103da565b6001600160a01b038316600090815260208190526040902054818110156107c55760405162461bcd60e51b815260206004820152602660248201527f45524332303a207472616e7366657220616d6f756e7420657863656564732062604482015265616c616e636560d01b60648201526084016103da565b6001600160a01b038085166000908152602081905260408082208585039055918516815290812080548492906107fc908490610a35565b92505081905550826001600160a01b0316846001600160a01b03167fddf252ad1be2c89b69c2b068fc378daa952ba7f163c4a11628f55a4df523b3ef8460405161084891815260200190565b60405180910390a3610681565b600060208083528351808285015260005b8181101561088257858101830151858201604001528201610866565b81811115610894576000604083870101525b50601f01601f1916929092016040019392505050565b80356001600160a01b03811681146108c157600080fd5b919050565b600080604083850312156108d957600080fd5b6108e2836108aa565b946020939093013593505050565b60008060006060848603121561090557600080fd5b61090e846108aa565b925061091c602085016108aa565b9150604084013590509250925092565b60006020828403121561093e57600080fd5b610947826108aa565b9392505050565b60006020828403121561096057600080fd5b8135801515811461094757600080fd5b6000806040838503121561098357600080fd5b61098c836108aa565b915061099a602084016108aa565b90509250929050565b600181811c908216806109b757607f821691505b602082108114156109d857634e487b7160e01b600052602260045260246000fd5b50919050565b634e487b7160e01b600052601160045260246000fd5b6000816000190483118215151615610a0e57610a0e6109de565b500290565b600082610a3057634e487b7160e01b600052601260045260246000fd5b500490565b60008219821115610a4857610a486109de565b500190565b600082821015610a5f57610a5f6109de565b50039056fea26469706673582212209d0be5238c684fc3c26580e7643f0133b232f908e6a8dde4b67559c2f658cf0864736f6c63430008090033",
  "linkReferences": {},
  "deployedLinkReferences": {}
}