{
  "_format": "hh-sol-artifact-1",
  "contractName": "SpaceCoinICO",
  "sourceName": "contracts/SpaceCoin.sol",
  "abi": [
    {
      "inputs": [
        {
          "internalType": "address",
          "name": "_treasury",
          "type": "address"
        }
      ],
      "stateMutability": "nonpayable",
      "type": "constructor"
    },
    {
      "inputs": [
        {
          "internalType": "uint256",
          "name": "currentInvidualContribs",
          "type": "uint256"
        },
        {
          "internalType": "uint256",
          "name": "contribValue",
          "type": "uint256"
        }
      ],
      "name": "OverIndividualContribLimit",
      "type": "error"
    },
    {
      "anonymous": false,
      "inputs": [
        {
          "indexed": false,
          "internalType": "address",
          "name": "investor",
          "type": "address"
        },
        {
          "indexed": false,
          "internalType": "uint256",
          "name": "value",
          "type": "uint256"
        },
        {
          "indexed": false,
          "internalType": "uint256",
          "name": "currentPhase",
          "type": "uint256"
        }
      ],
      "name": "Investment",
      "type": "event"
    },
    {
      "anonymous": false,
      "inputs": [
        {
          "indexed": false,
          "internalType": "bool",
          "name": "isPaused",
          "type": "bool"
        }
      ],
      "name": "Pause",
      "type": "event"
    },
    {
      "anonymous": false,
      "inputs": [
        {
          "indexed": false,
          "internalType": "uint256",
          "name": "currentPhase",
          "type": "uint256"
        }
      ],
      "name": "PhaseAdvance",
      "type": "event"
    },
    {
      "anonymous": false,
      "inputs": [
        {
          "indexed": false,
          "internalType": "address",
          "name": "claimAddr",
          "type": "address"
        },
        {
          "indexed": false,
          "internalType": "uint256",
          "name": "amountClaimed",
          "type": "uint256"
        }
      ],
      "name": "TokensClaimed",
      "type": "event"
    },
    {
      "inputs": [
        {
          "internalType": "address[]",
          "name": "_beneficiaries",
          "type": "address[]"
        }
      ],
      "name": "addManyToWhitelist",
      "outputs": [],
      "stateMutability": "nonpayable",
      "type": "function"
    },
    {
      "inputs": [
        {
          "internalType": "address",
          "name": "_beneficiary",
          "type": "address"
        }
      ],
      "name": "addToWhitelist",
      "outputs": [],
      "stateMutability": "nonpayable",
      "type": "function"
    },
    {
      "inputs": [],
      "name": "advancePhase",
      "outputs": [],
      "stateMutability": "nonpayable",
      "type": "function"
    },
    {
      "inputs": [],
      "name": "claimToken",
      "outputs": [],
      "stateMutability": "nonpayable",
      "type": "function"
    },
    {
      "inputs": [],
      "name": "currentPhase",
      "outputs": [
        {
          "internalType": "uint256",
          "name": "",
          "type": "uint256"
        }
      ],
      "stateMutability": "view",
      "type": "function"
    },
    {
      "inputs": [],
      "name": "invest",
      "outputs": [],
      "stateMutability": "payable",
      "type": "function"
    },
    {
      "inputs": [],
      "name": "isPaused",
      "outputs": [
        {
          "internalType": "bool",
          "name": "",
          "type": "bool"
        }
      ],
      "stateMutability": "view",
      "type": "function"
    },
    {
      "inputs": [],
      "name": "owner",
      "outputs": [
        {
          "internalType": "address",
          "name": "",
          "type": "address"
        }
      ],
      "stateMutability": "view",
      "type": "function"
    },
    {
      "inputs": [
        {
          "internalType": "bool",
          "name": "_isPaused",
          "type": "bool"
        }
      ],
      "name": "pause",
      "outputs": [],
      "stateMutability": "nonpayable",
      "type": "function"
    },
    {
      "inputs": [
        {
          "internalType": "address",
          "name": "_beneficiary",
          "type": "address"
        }
      ],
      "name": "removeFromWhitelist",
      "outputs": [],
      "stateMutability": "nonpayable",
      "type": "function"
    },
    {
      "inputs": [],
      "name": "tokenAddress",
      "outputs": [
        {
          "internalType": "address",
          "name": "",
          "type": "address"
        }
      ],
      "stateMutability": "view",
      "type": "function"
    },
    {
      "inputs": [
        {
          "internalType": "address",
          "name": "",
          "type": "address"
        }
      ],
      "name": "totalClaimableContrib",
      "outputs": [
        {
          "internalType": "uint256",
          "name": "",
          "type": "uint256"
        }
      ],
      "stateMutability": "view",
      "type": "function"
    },
    {
      "inputs": [],
      "name": "totalPrivateContrib",
      "outputs": [
        {
          "internalType": "uint256",
          "name": "",
          "type": "uint256"
        }
      ],
      "stateMutability": "view",
      "type": "function"
    },
    {
      "inputs": [],
      "name": "treasury",
      "outputs": [
        {
          "internalType": "address",
          "name": "",
          "type": "address"
        }
      ],
      "stateMutability": "view",
      "type": "function"
    },
    {
      "inputs": [
        {
          "internalType": "address",
          "name": "",
          "type": "address"
        }
      ],
      "name": "whitelist",
      "outputs": [
        {
          "internalType": "bool",
          "name": "",
          "type": "bool"
        }
      ],
      "stateMutability": "view",
      "type": "function"
    },
    {
      "inputs": [
        {
          "internalType": "uint256",
          "name": "_amount",
          "type": "uint256"
        }
      ],
      "name": "withdraw",
      "outputs": [],
      "stateMutability": "nonpayable",
      "type": "function"
    }
  ],
  "bytecode": "0x608060405260016004556005805460ff1916905569032d26d12e980b600000600755685150ae84a8cdf0000060085534801561003a57600080fd5b5060405162001e2f38038062001e2f83398101604081905261005b916101d0565b60008054336001600160a01b03199182168117909255600280549091166001600160a01b0384161790556040518290610093906101c2565b6001600160a01b03928316815291166020820152604001604051809103906000f0801580156100c6573d6000803e3d6000fd5b50600380546001600160a01b039283166001600160a01b03199182168117909255600180549091168217905560405163a9059cbb60e01b81529183166004830152694a1d89bb94865ec00000602483015260009163a9059cbb90604401602060405180830381600087803b15801561013d57600080fd5b505af1158015610151573d6000803e3d6000fd5b505050506040513d601f19601f820116820180604052508101906101759190610200565b9050806101bb5760405162461bcd60e51b815260206004820152601060248201526f2a3930b739b332b9103330b4b632b21760811b604482015260640160405180910390fd5b5050610222565b610dfb806200103483390190565b6000602082840312156101e257600080fd5b81516001600160a01b03811681146101f957600080fd5b9392505050565b60006020828403121561021257600080fd5b815180151581146101f957600080fd5b610e0280620002326000396000f3fe6080604052600436106100c35760003560e01c806302329a29146100c8578063055ad42e146100ea5780632e1a7d4d146101135780634451d89f1461013357806361d027b314610148578063724101ca146101805780638ab1d681146101965780638c10671c146101b65780638da5cb5b146101d65780639b19251a146101f65780639d76ea5814610236578063b187bd2614610256578063be25a71814610270578063c11be16014610285578063e43252d7146102b2578063e8b5e51f146102d2575b600080fd5b3480156100d457600080fd5b506100e86100e3366004610be4565b6102da565b005b3480156100f657600080fd5b5061010060045481565b6040519081526020015b60405180910390f35b34801561011f57600080fd5b506100e861012e366004610c08565b61035a565b34801561013f57600080fd5b506100e8610483565b34801561015457600080fd5b50600254610168906001600160a01b031681565b6040516001600160a01b03909116815260200161010a565b34801561018c57600080fd5b5061010060095481565b3480156101a257600080fd5b506100e86101b1366004610c21565b610677565b3480156101c257600080fd5b506100e86101d1366004610c4a565b6106c2565b3480156101e257600080fd5b50600054610168906001600160a01b031681565b34801561020257600080fd5b50610226610211366004610c21565b60066020526000908152604090205460ff1681565b604051901515815260200161010a565b34801561024257600080fd5b50600154610168906001600160a01b031681565b34801561026257600080fd5b506005546102269060ff1681565b34801561027c57600080fd5b506100e8610763565b34801561029157600080fd5b506101006102a0366004610c21565b600a6020526000908152604090205481565b3480156102be57600080fd5b506100e86102cd366004610c21565b610872565b6100e86108c0565b6000546001600160a01b0316331461030d5760405162461bcd60e51b815260040161030490610cbe565b60405180910390fd5b6005805460ff191682151590811790915560405160ff909116151581527f9422424b175dda897495a07b091ef74a3ef715cf6d866fc972954c1c7f4593049060200160405180910390a150565b6000546001600160a01b031633146103845760405162461bcd60e51b815260040161030490610cbe565b478111156103e55760405162461bcd60e51b815260206004820152602860248201527f636f6e7472616374206574682062616c616e6365206c657373207468616e2072604482015267195c5d595cdd195960c21b6064820152608401610304565b6002546040516000916001600160a01b03169083908381818185875af1925050503d8060008114610432576040519150601f19603f3d011682016040523d82523d6000602084013e610437565b606091505b505090508061047f5760405162461bcd60e51b81526020600482015260146024820152732330b4b632b2103a379039b2b7321022ba3432b960611b6044820152606401610304565b5050565b336000908152600a60205260409020546105055760405162461bcd60e51b815260206004820152603d60248201527f6e6f2053504320746f6b656e7320746f20636c61696d2066726f6d207365656460448201527f206f722067656e6572616c20706861736520696e766573746d656e74730000006064820152608401610304565b60045460031461056a5760405162461bcd60e51b815260206004820152602a60248201527f63616e6e6f7420636c61696d20746f6b656e732c206e6f742079657420696e206044820152696f70656e20706861736560b01b6064820152608401610304565b336000908152600a6020526040812054610585906005610d04565b336000818152600a602052604080822091909155519192507f896e034966eaaf1adc54acc0f257056febbd300c9e47182cf761982cf1f5e430916105cb91908490610d23565b60405180910390a160035460405163a9059cbb60e01b81526000916001600160a01b03169063a9059cbb906106069033908690600401610d23565b602060405180830381600087803b15801561062057600080fd5b505af1158015610634573d6000803e3d6000fd5b505050506040513d601f19601f820116820180604052508101906106589190610d3c565b90508061047f5760405162461bcd60e51b815260040161030490610d59565b6000546001600160a01b031633146106a15760405162461bcd60e51b815260040161030490610cbe565b6001600160a01b03166000908152600660205260409020805460ff19169055565b6000546001600160a01b031633146106ec5760405162461bcd60e51b815260040161030490610cbe565b60005b8181101561075e5760016006600085858581811061070f5761070f610d83565b90506020020160208101906107249190610c21565b6001600160a01b031681526020810191909152604001600020805460ff19169115159190911790558061075681610d99565b9150506106ef565b505050565b6000546001600160a01b0316331461078d5760405162461bcd60e51b815260040161030490610cbe565b6003600454106107df5760405162461bcd60e51b815260206004820152601e60248201527f63616e6e6f7420616476616e63652070617374206f70656e20706861736500006044820152606401610304565b600480549060006107ef83610d99565b91905055506004546002141561081b5769065a4da25d3016c00000600755683635c9adc5dea000006008555b600454600314156108355769065a4da25d3016c000006008555b7f45804bbcaeceaeace00c5d887178b7c4ce0238a3dbcfe777b59ba3f48b2c8f6860045460405161086891815260200190565b60405180910390a1565b6000546001600160a01b0316331461089c5760405162461bcd60e51b815260040161030490610cbe565b6001600160a01b03166000908152600660205260409020805460ff19166001179055565b60055460ff16156109135760405162461bcd60e51b815260206004820152601f60248201527f63616e6e6f7420696e766573742c2063757272656e746c7920706175736564006044820152606401610304565b600754346009546109249190610db4565b11156109985760405162461bcd60e51b815260206004820152603e60248201527f696e766573746d656e742065786365656473206d617820746f74616c2070726960448201527f7661746520696e766573746d656e7420666f72207468697320706861736500006064820152608401610304565b60045460011415610a1f573360009081526006602052604090205460ff16610a1f5760405162461bcd60e51b815260206004820152603460248201527f63616e6e6f7420696e7665737420696e20736565642070686173652c206164646044820152731c995cdcc81b9bdd081dda1a5d195b1a5cdd195960621b6064820152608401610304565b3460096000828254610a319190610db4565b909155505060045460011480610a4957506004546002145b15610ad757600854336000908152600a6020526040902054610a6c903490610db4565b1115610ab257336000908152600a6020526040902054610a8d903490610db4565b60085460405163289e0de760e11b815260048101929092526024820152604401610304565b336000908152600a602052604081208054349290610ad1908490610db4565b90915550505b6004546040805133815234602082015280820192909252517f8514357b17ccbde354811f827b94585a7ab01b4034aa86a807b7cc2c100b7be89181900360600190a160045460031415610bd4576003546000906001600160a01b031663a9059cbb33610b44346005610d04565b6040518363ffffffff1660e01b8152600401610b61929190610d23565b602060405180830381600087803b158015610b7b57600080fd5b505af1158015610b8f573d6000803e3d6000fd5b505050506040513d601f19601f82011682018060405250810190610bb39190610d3c565b905080610bd25760405162461bcd60e51b815260040161030490610d59565b505b565b8015158114610bd257600080fd5b600060208284031215610bf657600080fd5b8135610c0181610bd6565b9392505050565b600060208284031215610c1a57600080fd5b5035919050565b600060208284031215610c3357600080fd5b81356001600160a01b0381168114610c0157600080fd5b60008060208385031215610c5d57600080fd5b82356001600160401b0380821115610c7457600080fd5b818501915085601f830112610c8857600080fd5b813581811115610c9757600080fd5b8660208260051b8501011115610cac57600080fd5b60209290920196919550909350505050565b6020808252601690820152751bdb9b1e481bdddb995c8818d85b88191bc81d1a185d60521b604082015260600190565b634e487b7160e01b600052601160045260246000fd5b6000816000190483118215151615610d1e57610d1e610cee565b500290565b6001600160a01b03929092168252602082015260400190565b600060208284031215610d4e57600080fd5b8151610c0181610bd6565b60208082526010908201526f2a3930b739b332b9103330b4b632b21760811b604082015260600190565b634e487b7160e01b600052603260045260246000fd5b6000600019821415610dad57610dad610cee565b5060010190565b60008219821115610dc757610dc7610cee565b50019056fea264697066735822122078412241fade7900b14674fbcd076119707dc2b7fd3b2853a75774bf4529c96964736f6c6343000809003360806040526005805460ff191690553480156200001b57600080fd5b5060405162000dfb38038062000dfb8339810160408190526200003e91620002b5565b6040518060400160405280600981526020016829b830b1b2a1b7b4b760b91b8152506040518060400160405280600381526020016253504360e81b815250816003908051906020019062000094929190620001f2565b508051620000aa906004906020840190620001f2565b505060058054610100600160a81b0319166101006001600160a01b038681169190910291909117909155600680546001600160a01b0319169184169190911790555062000102336969e10de76676d08000006200010a565b505062000351565b6001600160a01b038216620001655760405162461bcd60e51b815260206004820152601f60248201527f45524332303a206d696e7420746f20746865207a65726f206164647265737300604482015260640160405180910390fd5b8060026000828254620001799190620002ed565b90915550506001600160a01b03821660009081526020819052604081208054839290620001a8908490620002ed565b90915550506040518181526001600160a01b038316906000907fddf252ad1be2c89b69c2b068fc378daa952ba7f163c4a11628f55a4df523b3ef9060200160405180910390a35050565b828054620002009062000314565b90600052602060002090601f0160209004810192826200022457600085556200026f565b82601f106200023f57805160ff19168380011785556200026f565b828001600101855582156200026f579182015b828111156200026f57825182559160200191906001019062000252565b506200027d92915062000281565b5090565b5b808211156200027d576000815560010162000282565b80516001600160a01b0381168114620002b057600080fd5b919050565b60008060408385031215620002c957600080fd5b620002d48362000298565b9150620002e46020840162000298565b90509250929050565b600082198211156200030f57634e487b7160e01b600052601160045260246000fd5b500190565b600181811c908216806200032957607f821691505b602082108114156200034b57634e487b7160e01b600052602260045260246000fd5b50919050565b610a9a80620003616000396000f3fe608060405234801561001057600080fd5b50600436106100c55760003560e01c806306fdde03146100ca578063095ea7b3146100e857806318160ddd1461010b57806323b872dd1461011d578063313ce56714610130578063395093511461013f57806361d027b31461015257806370a082311461017d5780638da5cb5b146101a657806395d89b41146101be578063a457c2d7146101c6578063a9059cbb146101d9578063b87edcad146101ec578063dd62ed3e14610201578063fb4b0d6814610214575b600080fd5b6100d2610221565b6040516100df9190610855565b60405180910390f35b6100fb6100f63660046108c6565b6102b3565b60405190151581526020016100df565b6002545b6040519081526020016100df565b6100fb61012b3660046108f0565b6102cb565b604051601281526020016100df565b6100fb61014d3660046108c6565b61033f565b600654610165906001600160a01b031681565b6040516001600160a01b0390911681526020016100df565b61010f61018b36600461092c565b6001600160a01b031660009081526020819052604090205490565b6005546101659061010090046001600160a01b031681565b6100d2610361565b6100fb6101d43660046108c6565b610370565b6100fb6101e73660046108c6565b6103f0565b6101ff6101fa36600461094e565b610453565b005b61010f61020f366004610970565b6104be565b6005546100fb9060ff1681565b606060038054610230906109a3565b80601f016020809104026020016040519081016040528092919081815260200182805461025c906109a3565b80156102a95780601f1061027e576101008083540402835291602001916102a9565b820191906000526020600020905b81548152906001019060200180831161028c57829003601f168201915b5050505050905090565b6000336102c18185856104e9565b5060019392505050565b6000336102d985828561060d565b60055460ff161561032957610305858560646102f68760626109f4565b6103009190610a13565b610687565b6006546103249086906001600160a01b031660646102f68760026109f4565b610334565b610334858585610687565b506001949350505050565b6000336102c181858561035283836104be565b61035c9190610a35565b6104e9565b606060048054610230906109a3565b6000338161037e82866104be565b9050838110156103e35760405162461bcd60e51b815260206004820152602560248201527f45524332303a2064656372656173656420616c6c6f77616e63652062656c6f77604482015264207a65726f60d81b60648201526084015b60405180910390fd5b61033482868684036104e9565b600554600090339060ff1615610448576000606461040f8560026109f4565b6104199190610a13565b905061042a82866103008488610a4d565b6006546104429083906001600160a01b031683610687565b506102c1565b6102c1818585610687565b60055461010090046001600160a01b031633146104ab5760405162461bcd60e51b81526020600482015260166024820152751bdb9b1e481bdddb995c8818d85b88191bc81d1a185d60521b60448201526064016103da565b6005805460ff1916911515919091179055565b6001600160a01b03918216600090815260016020908152604080832093909416825291909152205490565b6001600160a01b03831661054b5760405162461bcd60e51b8152602060048201526024808201527f45524332303a20617070726f76652066726f6d20746865207a65726f206164646044820152637265737360e01b60648201526084016103da565b6001600160a01b0382166105ac5760405162461bcd60e51b815260206004820152602260248201527f45524332303a20617070726f766520746f20746865207a65726f206164647265604482015261737360f01b60648201526084016103da565b6001600160a01b0383811660008181526001602090815260408083209487168084529482529182902085905590518481527f8c5be1e5ebec7d5bd14f71427d1e84f3dd0314c0f7b2291e5b200ac8c7c3b925910160405180910390a3505050565b600061061984846104be565b9050600019811461068157818110156106745760405162461bcd60e51b815260206004820152601d60248201527f45524332303a20696e73756666696369656e7420616c6c6f77616e636500000060448201526064016103da565b61068184848484036104e9565b50505050565b6001600160a01b0383166106eb5760405162461bcd60e51b815260206004820152602560248201527f45524332303a207472616e736665722066726f6d20746865207a65726f206164604482015264647265737360d81b60648201526084016103da565b6001600160a01b03821661074d5760405162461bcd60e51b815260206004820152602360248201527f45524332303a207472616e7366657220746f20746865207a65726f206164647260448201526265737360e81b60648201526084016103da565b6001600160a01b038316600090815260208190526040902054818110156107c55760405162461bcd60e51b815260206004820152602660248201527f45524332303a207472616e7366657220616d6f756e7420657863656564732062604482015265616c616e636560d01b60648201526084016103da565b6001600160a01b038085166000908152602081905260408082208585039055918516815290812080548492906107fc908490610a35565b92505081905550826001600160a01b0316846001600160a01b03167fddf252ad1be2c89b69c2b068fc378daa952ba7f163c4a11628f55a4df523b3ef8460405161084891815260200190565b60405180910390a3610681565b600060208083528351808285015260005b8181101561088257858101830151858201604001528201610866565b81811115610894576000604083870101525b50601f01601f1916929092016040019392505050565b80356001600160a01b03811681146108c157600080fd5b919050565b600080604083850312156108d957600080fd5b6108e2836108aa565b946020939093013593505050565b60008060006060848603121561090557600080fd5b61090e846108aa565b925061091c602085016108aa565b9150604084013590509250925092565b60006020828403121561093e57600080fd5b610947826108aa565b9392505050565b60006020828403121561096057600080fd5b8135801515811461094757600080fd5b6000806040838503121561098357600080fd5b61098c836108aa565b915061099a602084016108aa565b90509250929050565b600181811c908216806109b757607f821691505b602082108114156109d857634e487b7160e01b600052602260045260246000fd5b50919050565b634e487b7160e01b600052601160045260246000fd5b6000816000190483118215151615610a0e57610a0e6109de565b500290565b600082610a3057634e487b7160e01b600052601260045260246000fd5b500490565b60008219821115610a4857610a486109de565b500190565b600082821015610a5f57610a5f6109de565b50039056fea26469706673582212209d0be5238c684fc3c26580e7643f0133b232f908e6a8dde4b67559c2f658cf0864736f6c63430008090033",
  "linkReferences": {},
  "deployedLinkReferences": {}
}