{
  "_format": "hh-sol-artifact-1",
  "contractName": "SpaceCoinLP",
  "sourceName": "contracts/LP.sol",
  "abi": [
    {
      "inputs": [
        {
          "internalType": "address",
          "name": "_tokenAddress",
          "type": "address"
        }
      ],
      "stateMutability": "nonpayable",
      "type": "constructor"
    },
    {
      "anonymous": false,
      "inputs": [
        {
          "indexed": true,
          "internalType": "address",
          "name": "owner",
          "type": "address"
        },
        {
          "indexed": true,
          "internalType": "address",
          "name": "spender",
          "type": "address"
        },
        {
          "indexed": false,
          "internalType": "uint256",
          "name": "value",
          "type": "uint256"
        }
      ],
      "name": "Approval",
      "type": "event"
    },
    {
      "anonymous": false,
      "inputs": [
        {
          "indexed": false,
          "internalType": "address",
          "name": "recipient",
          "type": "address"
        },
        {
          "indexed": false,
          "internalType": "uint256",
          "name": "amountETH",
          "type": "uint256"
        },
        {
          "indexed": false,
          "internalType": "uint256",
          "name": "amountSPC",
          "type": "uint256"
        }
      ],
      "name": "Burn",
      "type": "event"
    },
    {
      "anonymous": false,
      "inputs": [
        {
          "indexed": false,
          "internalType": "address",
          "name": "recipient",
          "type": "address"
        },
        {
          "indexed": false,
          "internalType": "uint256",
          "name": "amountETH",
          "type": "uint256"
        },
        {
          "indexed": false,
          "internalType": "uint256",
          "name": "amountSPC",
          "type": "uint256"
        }
      ],
      "name": "Mint",
      "type": "event"
    },
    {
      "anonymous": false,
      "inputs": [
        {
          "indexed": false,
          "internalType": "address",
          "name": "recipient",
          "type": "address"
        },
        {
          "indexed": false,
          "internalType": "uint256",
          "name": "amountIn",
          "type": "uint256"
        },
        {
          "indexed": false,
          "internalType": "uint256",
          "name": "amountOut",
          "type": "uint256"
        }
      ],
      "name": "SwapETH",
      "type": "event"
    },
    {
      "anonymous": false,
      "inputs": [
        {
          "indexed": false,
          "internalType": "address",
          "name": "recipient",
          "type": "address"
        },
        {
          "indexed": false,
          "internalType": "uint256",
          "name": "amountIn",
          "type": "uint256"
        },
        {
          "indexed": false,
          "internalType": "uint256",
          "name": "amountOut",
          "type": "uint256"
        }
      ],
      "name": "SwapSPC",
      "type": "event"
    },
    {
      "anonymous": false,
      "inputs": [
        {
          "indexed": true,
          "internalType": "address",
          "name": "from",
          "type": "address"
        },
        {
          "indexed": true,
          "internalType": "address",
          "name": "to",
          "type": "address"
        },
        {
          "indexed": false,
          "internalType": "uint256",
          "name": "value",
          "type": "uint256"
        }
      ],
      "name": "Transfer",
      "type": "event"
    },
    {
      "inputs": [
        {
          "internalType": "address",
          "name": "owner",
          "type": "address"
        },
        {
          "internalType": "address",
          "name": "spender",
          "type": "address"
        }
      ],
      "name": "allowance",
      "outputs": [
        {
          "internalType": "uint256",
          "name": "",
          "type": "uint256"
        }
      ],
      "stateMutability": "view",
      "type": "function"
    },
    {
      "inputs": [
        {
          "internalType": "address",
          "name": "spender",
          "type": "address"
        },
        {
          "internalType": "uint256",
          "name": "amount",
          "type": "uint256"
        }
      ],
      "name": "approve",
      "outputs": [
        {
          "internalType": "bool",
          "name": "",
          "type": "bool"
        }
      ],
      "stateMutability": "nonpayable",
      "type": "function"
    },
    {
      "inputs": [
        {
          "internalType": "address",
          "name": "account",
          "type": "address"
        }
      ],
      "name": "balanceOf",
      "outputs": [
        {
          "internalType": "uint256",
          "name": "",
          "type": "uint256"
        }
      ],
      "stateMutability": "view",
      "type": "function"
    },
    {
      "inputs": [
        {
          "internalType": "address",
          "name": "_recipient",
          "type": "address"
        }
      ],
      "name": "burn",
      "outputs": [
        {
          "internalType": "uint256",
          "name": "ethToSend",
          "type": "uint256"
        },
        {
          "internalType": "uint256",
          "name": "spcToSend",
          "type": "uint256"
        }
      ],
      "stateMutability": "nonpayable",
      "type": "function"
    },
    {
      "inputs": [],
      "name": "decimals",
      "outputs": [
        {
          "internalType": "uint8",
          "name": "",
          "type": "uint8"
        }
      ],
      "stateMutability": "view",
      "type": "function"
    },
    {
      "inputs": [
        {
          "internalType": "address",
          "name": "spender",
          "type": "address"
        },
        {
          "internalType": "uint256",
          "name": "subtractedValue",
          "type": "uint256"
        }
      ],
      "name": "decreaseAllowance",
      "outputs": [
        {
          "internalType": "bool",
          "name": "",
          "type": "bool"
        }
      ],
      "stateMutability": "nonpayable",
      "type": "function"
    },
    {
      "inputs": [],
      "name": "ethTotal",
      "outputs": [
        {
          "internalType": "uint256",
          "name": "",
          "type": "uint256"
        }
      ],
      "stateMutability": "view",
      "type": "function"
    },
    {
      "inputs": [
        {
          "internalType": "uint256",
          "name": "amountIn",
          "type": "uint256"
        },
        {
          "internalType": "bool",
          "name": "swapDirection",
          "type": "bool"
        }
      ],
      "name": "idealQuote",
      "outputs": [
        {
          "internalType": "uint256",
          "name": "amountOut",
          "type": "uint256"
        }
      ],
      "stateMutability": "view",
      "type": "function"
    },
    {
      "inputs": [
        {
          "internalType": "address",
          "name": "spender",
          "type": "address"
        },
        {
          "internalType": "uint256",
          "name": "addedValue",
          "type": "uint256"
        }
      ],
      "name": "increaseAllowance",
      "outputs": [
        {
          "internalType": "bool",
          "name": "",
          "type": "bool"
        }
      ],
      "stateMutability": "nonpayable",
      "type": "function"
    },
    {
      "inputs": [],
      "name": "k",
      "outputs": [
        {
          "internalType": "uint256",
          "name": "",
          "type": "uint256"
        }
      ],
      "stateMutability": "view",
      "type": "function"
    },
    {
      "inputs": [
        {
          "internalType": "address",
          "name": "_recipient",
          "type": "address"
        }
      ],
      "name": "mint",
      "outputs": [
        {
          "internalType": "uint256",
          "name": "lpTokensToMint",
          "type": "uint256"
        }
      ],
      "stateMutability": "nonpayable",
      "type": "function"
    },
    {
      "inputs": [],
      "name": "name",
      "outputs": [
        {
          "internalType": "string",
          "name": "",
          "type": "string"
        }
      ],
      "stateMutability": "view",
      "type": "function"
    },
    {
      "inputs": [
        {
          "internalType": "uint256",
          "name": "ethAdded",
          "type": "uint256"
        }
      ],
      "name": "quoteEthForToken",
      "outputs": [
        {
          "internalType": "uint256",
          "name": "spcToSend",
          "type": "uint256"
        }
      ],
      "stateMutability": "view",
      "type": "function"
    },
    {
      "inputs": [
        {
          "internalType": "uint256",
          "name": "spcAdded",
          "type": "uint256"
        }
      ],
      "name": "quoteTokenForEth",
      "outputs": [
        {
          "internalType": "uint256",
          "name": "ethToSend",
          "type": "uint256"
        }
      ],
      "stateMutability": "view",
      "type": "function"
    },
    {
      "inputs": [
        {
          "internalType": "address",
          "name": "_recipient",
          "type": "address"
        }
      ],
      "name": "skim",
      "outputs": [],
      "stateMutability": "nonpayable",
      "type": "function"
    },
    {
      "inputs": [],
      "name": "spaceCoin",
      "outputs": [
        {
          "internalType": "contract SpaceCoin",
          "name": "",
          "type": "address"
        }
      ],
      "stateMutability": "view",
      "type": "function"
    },
    {
      "inputs": [],
      "name": "spcTotal",
      "outputs": [
        {
          "internalType": "uint256",
          "name": "",
          "type": "uint256"
        }
      ],
      "stateMutability": "view",
      "type": "function"
    },
    {
      "inputs": [
        {
          "internalType": "address",
          "name": "_recipient",
          "type": "address"
        }
      ],
      "name": "swapEthForToken",
      "outputs": [
        {
          "internalType": "uint256",
          "name": "spcToSend",
          "type": "uint256"
        }
      ],
      "stateMutability": "nonpayable",
      "type": "function"
    },
    {
      "inputs": [
        {
          "internalType": "address",
          "name": "_recipient",
          "type": "address"
        }
      ],
      "name": "swapTokenForEth",
      "outputs": [
        {
          "internalType": "uint256",
          "name": "ethToSend",
          "type": "uint256"
        }
      ],
      "stateMutability": "nonpayable",
      "type": "function"
    },
    {
      "inputs": [],
      "name": "symbol",
      "outputs": [
        {
          "internalType": "string",
          "name": "",
          "type": "string"
        }
      ],
      "stateMutability": "view",
      "type": "function"
    },
    {
      "inputs": [],
      "name": "totalSupply",
      "outputs": [
        {
          "internalType": "uint256",
          "name": "",
          "type": "uint256"
        }
      ],
      "stateMutability": "view",
      "type": "function"
    },
    {
      "inputs": [
        {
          "internalType": "address",
          "name": "to",
          "type": "address"
        },
        {
          "internalType": "uint256",
          "name": "amount",
          "type": "uint256"
        }
      ],
      "name": "transfer",
      "outputs": [
        {
          "internalType": "bool",
          "name": "",
          "type": "bool"
        }
      ],
      "stateMutability": "nonpayable",
      "type": "function"
    },
    {
      "inputs": [
        {
          "internalType": "address",
          "name": "from",
          "type": "address"
        },
        {
          "internalType": "address",
          "name": "to",
          "type": "address"
        },
        {
          "internalType": "uint256",
          "name": "amount",
          "type": "uint256"
        }
      ],
      "name": "transferFrom",
      "outputs": [
        {
          "internalType": "bool",
          "name": "",
          "type": "bool"
        }
      ],
      "stateMutability": "nonpayable",
      "type": "function"
    },
    {
      "stateMutability": "payable",
      "type": "receive"
    }
  ],
  "bytecode": "0x60a06040523480156200001157600080fd5b5060405162001eca38038062001eca83398101604081905262000034916200015a565b604080518082018252600b81526a05370616365436f696e4c560ac1b60208083019182528351808501909452600a84526905350432d455448204c560b41b9084015281519192916200008991600391620000b4565b5080516200009f906004906020840190620000b4565b5050506001600160a01b0316608052620001c9565b828054620000c2906200018c565b90600052602060002090601f016020900481019282620000e6576000855562000131565b82601f106200010157805160ff191683800117855562000131565b8280016001018555821562000131579182015b828111156200013157825182559160200191906001019062000114565b506200013f92915062000143565b5090565b5b808211156200013f576000815560010162000144565b6000602082840312156200016d57600080fd5b81516001600160a01b03811681146200018557600080fd5b9392505050565b600181811c90821680620001a157607f821691505b60208210811415620001c357634e487b7160e01b600052602260045260246000fd5b50919050565b608051611cad6200021d600039600081816103d6015281816105350152818161087a01528181610a7701528181610c8801528181610d3201528181610fdc015281816110a201526111810152611cad6000f3fe6080604052600436106101145760003560e01c806306fdde0314610120578063095ea7b31461014b57806318160ddd1461017b57806323b872dd1461019a578063313ce567146101ba57806339509351146101d657806341eccbd5146101f65780636a6278421461020c5780636af1e2971461022c57806370a082311461024c57806389afcb441461026c5780638a3e01d0146102a15780638ca667be146102b757806395d89b41146102d75780639a20fb5a146102ec578063a457c2d71461030c578063a9059cbb1461032c578063acb980eb1461034c578063b4f40c611461036c578063bc25cf7714610382578063dd62ed3e146103a4578063e48575d4146103c4578063ff03e9531461040557600080fd5b3661011b57005b600080fd5b34801561012c57600080fd5b50610135610425565b60405161014291906118f1565b60405180910390f35b34801561015757600080fd5b5061016b610166366004611962565b6104b7565b6040519015158152602001610142565b34801561018757600080fd5b506002545b604051908152602001610142565b3480156101a657600080fd5b5061016b6101b536600461198c565b6104d1565b3480156101c657600080fd5b5060405160128152602001610142565b3480156101e257600080fd5b5061016b6101f1366004611962565b6104f5565b34801561020257600080fd5b5061018c60065481565b34801561021857600080fd5b5061018c6102273660046119c8565b610517565b34801561023857600080fd5b5061018c6102473660046119fb565b6107b6565b34801561025857600080fd5b5061018c6102673660046119c8565b6107ef565b34801561027857600080fd5b5061028c6102873660046119c8565b61080a565b60408051928352602083019190915201610142565b3480156102ad57600080fd5b5061018c60075481565b3480156102c357600080fd5b5061018c6102d2366004611a2b565b610b2a565b3480156102e357600080fd5b50610135610b93565b3480156102f857600080fd5b5061018c6103073660046119c8565b610ba2565b34801561031857600080fd5b5061016b610327366004611962565b610e5f565b34801561033857600080fd5b5061016b610347366004611962565b610eda565b34801561035857600080fd5b5061018c610367366004611a2b565b610ee8565b34801561037857600080fd5b5061018c60055481565b34801561038e57600080fd5b506103a261039d3660046119c8565b610f48565b005b3480156103b057600080fd5b5061018c6103bf366004611a44565b611151565b3480156103d057600080fd5b506103f87f000000000000000000000000000000000000000000000000000000000000000081565b6040516101429190611a77565b34801561041157600080fd5b5061018c6104203660046119c8565b61117c565b60606003805461043490611a8b565b80601f016020809104026020016040519081016040528092919081815260200182805461046090611a8b565b80156104ad5780601f10610482576101008083540402835291602001916104ad565b820191906000526020600020905b81548152906001019060200180831161049057829003601f168201915b5050505050905090565b6000336104c5818585611394565b60019150505b92915050565b6000336104df8582856114b8565b6104ea85858561152c565b506001949350505050565b6000336104c58185856105088383611151565b6105129190611adc565b611394565b6040516370a0823160e01b8152600090479082906001600160a01b037f000000000000000000000000000000000000000000000000000000000000000016906370a082319061056a903090600401611a77565b60206040518083038186803b15801561058257600080fd5b505afa158015610596573d6000803e3d6000fd5b505050506040513d601f19601f820116820180604052508101906105ba9190611af4565b90506000600654836105cc9190611b0d565b90506000600754836105de9190611b0d565b905081158015906105ee57508015155b6106345760405162461bcd60e51b81526020600482015260126024820152710daeae6e840c2c8c840a6a0864056408aa8960731b60448201526064015b60405180910390fd5b600061063f60025490565b9050806106b05760068390556007829055670de0b6b3a76400009550856106668385611b24565b6106709190611b43565b60055561067d87876116e8565b600080516020611c1883398151915287848460405161069e93929190611b65565b60405180910390a15050505050919050565b6006546106bd8285611b24565b6106c79190611b43565b9550600060075482846106da9190611b24565b6106e49190611b43565b9050808711156106f2578096505b81600654886107019190611b24565b61070b9190611b43565b6006600082825461071c9190611adc565b909155505060075482906107309089611b24565b61073a9190611b43565b6007600082825461074b9190611adc565b9091555061075b90508783611adc565b60075460065461076b9190611b24565b6107759190611b43565b60055561078288886116e8565b600080516020611c188339815191528885856040516107a393929190611b65565b60405180910390a1505050505050919050565b600081156107df576007546006546107ce9085611b24565b6107d89190611b43565b90506104cb565b6006546007546107ce9085611b24565b6001600160a01b031660009081526020819052604090205490565b6000806000610818306107ef565b90508061085e5760405162461bcd60e51b81526020600482015260146024820152733737902628103a37b5b2b739903a3790313ab93760611b604482015260640161062b565b6040516370a0823160e01b815247906000906001600160a01b037f000000000000000000000000000000000000000000000000000000000000000016906370a08231906108af903090600401611a77565b60206040518083038186803b1580156108c757600080fd5b505afa1580156108db573d6000803e3d6000fd5b505050506040513d601f19601f820116820180604052508101906108ff9190611af4565b9050600061090c60025490565b9050806109198486611b24565b6109239190611b43565b9550806109308386611b24565b61093a9190611b43565b9450856006600082825461094e9190611b0d565b9250508190555084600760008282546109679190611b0d565b909155505080841461099f5761097d8482611b0d565b60075460065461098d9190611b24565b6109979190611b43565b6005556109a5565b60006005555b6109af30856117b5565b7f49995e5dd6158cf69ad3e9777c46755a1a826a446c6416992167462dad033b2a8787876040516109e293929190611b65565b60405180910390a16000876001600160a01b03168760405160006040518083038185875af1925050503d8060008114610a37576040519150601f19603f3d011682016040523d82523d6000602084013e610a3c565b606091505b5050905080610a5d5760405162461bcd60e51b815260040161062b90611b86565b60405163a9059cbb60e01b81526000906001600160a01b037f0000000000000000000000000000000000000000000000000000000000000000169063a9059cbb90610aae908c908b90600401611bb4565b602060405180830381600087803b158015610ac857600080fd5b505af1158015610adc573d6000803e3d6000fd5b505050506040513d601f19601f82011682018060405250810190610b009190611bcd565b905080610b1f5760405162461bcd60e51b815260040161062b90611bea565b505050505050915091565b600080610b3660025490565b90506000610b45606485611b43565b905060008185600654610b589190611adc565b610b629190611b0d565b83600554610b709190611b24565b610b7a9190611b43565b905080600754610b8a9190611b0d565b95945050505050565b60606004805461043490611a8b565b60065460009047908290610bb69083611b0d565b905060008111610c135760405162461bcd60e51b815260206004820152602260248201527f796f7520676f7474612067697665206d6520736f6d652045544820746f207377604482015261061760f41b606482015260840161062b565b610c1c81610b2a565b92508060066000828254610c309190611adc565b925050819055508260076000828254610c499190611b0d565b9091555050600254600754600654610c619190611b24565b610c6b9190611b43565b60055560405163a9059cbb60e01b81526000906001600160a01b037f0000000000000000000000000000000000000000000000000000000000000000169063a9059cbb90610cbf9088908890600401611bb4565b602060405180830381600087803b158015610cd957600080fd5b505af1158015610ced573d6000803e3d6000fd5b505050506040513d601f19601f82011682018060405250810190610d119190611bcd565b905080610d305760405162461bcd60e51b815260040161062b90611bea565b7f00000000000000000000000000000000000000000000000000000000000000006001600160a01b031663fb4b0d686040518163ffffffff1660e01b815260040160206040518083038186803b158015610d8957600080fd5b505afa158015610d9d573d6000803e3d6000fd5b505050506040513d601f19601f82011682018060405250810190610dc19190611bcd565b610df657600080516020611c38833981519152858386604051610de693929190611b65565b60405180910390a1505050919050565b60006064610e05866002611b24565b610e0f9190611b43565b9050600080516020611c388339815191528684610e2c8489611b0d565b604051610e3b93929190611b65565b60405180910390a1610e4d8186611b0d565b9695505050505050565b505050919050565b60003381610e6d8286611151565b905083811015610ecd5760405162461bcd60e51b815260206004820152602560248201527f45524332303a2064656372656173656420616c6c6f77616e63652062656c6f77604482015264207a65726f60d81b606482015260840161062b565b6104ea8286868403611394565b6000336104c581858561152c565b600080610ef460025490565b90506000610f03606485611b43565b905060008185600754610f169190611adc565b610f209190611b0d565b83600554610f2e9190611b24565b610f389190611b43565b905080600654610b8a9190611b0d565b600060065447610f589190611b0d565b90508015610fd5576000826001600160a01b03168260405160006040518083038185875af1925050503d8060008114610fad576040519150601f19603f3d011682016040523d82523d6000602084013e610fb2565b606091505b5050905080610fd35760405162461bcd60e51b815260040161062b90611b86565b505b60006007547f00000000000000000000000000000000000000000000000000000000000000006001600160a01b03166370a08231306040518263ffffffff1660e01b81526004016110269190611a77565b60206040518083038186803b15801561103e57600080fd5b505afa158015611052573d6000803e3d6000fd5b505050506040513d601f19601f820116820180604052508101906110769190611af4565b6110809190611b0d565b9050801561114c5760405163a9059cbb60e01b81526000906001600160a01b037f0000000000000000000000000000000000000000000000000000000000000000169063a9059cbb906110d99087908690600401611bb4565b602060405180830381600087803b1580156110f357600080fd5b505af1158015611107573d6000803e3d6000fd5b505050506040513d601f19601f8201168201806040525081019061112b9190611bcd565b90508061114a5760405162461bcd60e51b815260040161062b90611bea565b505b505050565b6001600160a01b03918216600090815260016020908152604080832093909416825291909152205490565b6000807f00000000000000000000000000000000000000000000000000000000000000006001600160a01b03166370a08231306040518263ffffffff1660e01b81526004016111cb9190611a77565b60206040518083038186803b1580156111e357600080fd5b505afa1580156111f7573d6000803e3d6000fd5b505050506040513d601f19601f8201168201806040525081019061121b9190611af4565b905060006007548261122d9190611b0d565b90506000811161128a5760405162461bcd60e51b815260206004820152602260248201527f796f7520676f7474612067697665206d6520736f6d652053504320746f207377604482015261061760f41b606482015260840161062b565b61129381610ee8565b925080600760008282546112a79190611adc565b9250508190555082600660008282546112c09190611b0d565b90915550506002546007546006546112d89190611b24565b6112e29190611b43565b6005556040517fcc49c0ae4e250746c9bb1f7764cc6011b2bd8e852d977e5c758c892bd36e7ea79061131990869084908790611b65565b60405180910390a16000846001600160a01b03168460405160006040518083038185875af1925050503d806000811461136e576040519150601f19603f3d011682016040523d82523d6000602084013e611373565b606091505b5050905080610e575760405162461bcd60e51b815260040161062b90611b86565b6001600160a01b0383166113f65760405162461bcd60e51b8152602060048201526024808201527f45524332303a20617070726f76652066726f6d20746865207a65726f206164646044820152637265737360e01b606482015260840161062b565b6001600160a01b0382166114575760405162461bcd60e51b815260206004820152602260248201527f45524332303a20617070726f766520746f20746865207a65726f206164647265604482015261737360f01b606482015260840161062b565b6001600160a01b0383811660008181526001602090815260408083209487168084529482529182902085905590518481527f8c5be1e5ebec7d5bd14f71427d1e84f3dd0314c0f7b2291e5b200ac8c7c3b925910160405180910390a3505050565b60006114c48484611151565b9050600019811461114a578181101561151f5760405162461bcd60e51b815260206004820152601d60248201527f45524332303a20696e73756666696369656e7420616c6c6f77616e6365000000604482015260640161062b565b61114a8484848403611394565b6001600160a01b0383166115905760405162461bcd60e51b815260206004820152602560248201527f45524332303a207472616e736665722066726f6d20746865207a65726f206164604482015264647265737360d81b606482015260840161062b565b6001600160a01b0382166115f25760405162461bcd60e51b815260206004820152602360248201527f45524332303a207472616e7366657220746f20746865207a65726f206164647260448201526265737360e81b606482015260840161062b565b6001600160a01b0383166000908152602081905260409020548181101561166a5760405162461bcd60e51b815260206004820152602660248201527f45524332303a207472616e7366657220616d6f756e7420657863656564732062604482015265616c616e636560d01b606482015260840161062b565b6001600160a01b038085166000908152602081905260408082208585039055918516815290812080548492906116a1908490611adc565b92505081905550826001600160a01b0316846001600160a01b0316600080516020611c58833981519152846040516116db91815260200190565b60405180910390a361114a565b6001600160a01b03821661173e5760405162461bcd60e51b815260206004820152601f60248201527f45524332303a206d696e7420746f20746865207a65726f206164647265737300604482015260640161062b565b80600260008282546117509190611adc565b90915550506001600160a01b0382166000908152602081905260408120805483929061177d908490611adc565b90915550506040518181526001600160a01b03831690600090600080516020611c588339815191529060200160405180910390a35050565b6001600160a01b0382166118155760405162461bcd60e51b815260206004820152602160248201527f45524332303a206275726e2066726f6d20746865207a65726f206164647265736044820152607360f81b606482015260840161062b565b6001600160a01b038216600090815260208190526040902054818110156118895760405162461bcd60e51b815260206004820152602260248201527f45524332303a206275726e20616d6f756e7420657863656564732062616c616e604482015261636560f01b606482015260840161062b565b6001600160a01b03831660009081526020819052604081208383039055600280548492906118b8908490611b0d565b90915550506040518281526000906001600160a01b03851690600080516020611c588339815191529060200160405180910390a3505050565b600060208083528351808285015260005b8181101561191e57858101830151858201604001528201611902565b81811115611930576000604083870101525b50601f01601f1916929092016040019392505050565b80356001600160a01b038116811461195d57600080fd5b919050565b6000806040838503121561197557600080fd5b61197e83611946565b946020939093013593505050565b6000806000606084860312156119a157600080fd5b6119aa84611946565b92506119b860208501611946565b9150604084013590509250925092565b6000602082840312156119da57600080fd5b6119e382611946565b9392505050565b80151581146119f857600080fd5b50565b60008060408385031215611a0e57600080fd5b823591506020830135611a20816119ea565b809150509250929050565b600060208284031215611a3d57600080fd5b5035919050565b60008060408385031215611a5757600080fd5b611a6083611946565b9150611a6e60208401611946565b90509250929050565b6001600160a01b0391909116815260200190565b600181811c90821680611a9f57607f821691505b60208210811415611ac057634e487b7160e01b600052602260045260246000fd5b50919050565b634e487b7160e01b600052601160045260246000fd5b60008219821115611aef57611aef611ac6565b500190565b600060208284031215611b0657600080fd5b5051919050565b600082821015611b1f57611b1f611ac6565b500390565b6000816000190483118215151615611b3e57611b3e611ac6565b500290565b600082611b6057634e487b7160e01b600052601260045260246000fd5b500490565b6001600160a01b039390931683526020830191909152604082015260600190565b6020808252601490820152732330b4b632b2103a379039b2b7321022ba3432b960611b604082015260600190565b6001600160a01b03929092168252602082015260400190565b600060208284031215611bdf57600080fd5b81516119e3816119ea565b60208082526013908201527214d410c81d1c985b9cd9995c8819985a5b1959606a1b60408201526060019056fe4c209b5fc8ad50758f13e2e1088ba56a560dff690a1c6fef26394f4c03821c4fa2ec413b79f1daccc6cf6299bed9623abfcbd019a059e4c84847166d615e213eddf252ad1be2c89b69c2b068fc378daa952ba7f163c4a11628f55a4df523b3efa2646970667358221220d5a851d18a613a9d5cd5d60dfcd3af864ccbf06f4510d5c75946c5fc2add2a8364736f6c63430008090033",
  "linkReferences": {},
  "deployedLinkReferences": {}
}