{
  "_format": "hh-sol-artifact-1",
  "contractName": "SpaceRouter",
  "sourceName": "contracts/LP.sol",
  "abi": [
    {
      "inputs": [
        {
          "internalType": "address",
          "name": "_tokenAddress",
          "type": "address"
        },
        {
          "internalType": "address",
          "name": "_lpTokenAddress",
          "type": "address"
        }
      ],
      "stateMutability": "nonpayable",
      "type": "constructor"
    },
    {
      "inputs": [
        {
          "internalType": "uint256",
          "name": "amountSpcIn",
          "type": "uint256"
        },
        {
          "internalType": "uint256",
          "name": "amountSpcMin",
          "type": "uint256"
        },
        {
          "internalType": "uint256",
          "name": "amountEthMin",
          "type": "uint256"
        }
      ],
      "name": "addLiquidity",
      "outputs": [],
      "stateMutability": "payable",
      "type": "function"
    },
    {
      "inputs": [],
      "name": "lpContract",
      "outputs": [
        {
          "internalType": "contract SpaceCoinLP",
          "name": "",
          "type": "address"
        }
      ],
      "stateMutability": "view",
      "type": "function"
    },
    {
      "inputs": [],
      "name": "lpTokenAddress",
      "outputs": [
        {
          "internalType": "address payable",
          "name": "",
          "type": "address"
        }
      ],
      "stateMutability": "view",
      "type": "function"
    },
    {
      "inputs": [
        {
          "internalType": "uint256",
          "name": "_lpTokensToBurn",
          "type": "uint256"
        }
      ],
      "name": "removeLiquidity",
      "outputs": [],
      "stateMutability": "nonpayable",
      "type": "function"
    },
    {
      "inputs": [],
      "name": "spaceCoin",
      "outputs": [
        {
          "internalType": "contract SpaceCoin",
          "name": "",
          "type": "address"
        }
      ],
      "stateMutability": "view",
      "type": "function"
    },
    {
      "inputs": [
        {
          "internalType": "uint256",
          "name": "amountOutMin",
          "type": "uint256"
        }
      ],
      "name": "swapExactEthForToken",
      "outputs": [],
      "stateMutability": "payable",
      "type": "function"
    },
    {
      "inputs": [
        {
          "internalType": "uint256",
          "name": "amountIn",
          "type": "uint256"
        },
        {
          "internalType": "uint256",
          "name": "amountOutMin",
          "type": "uint256"
        }
      ],
      "name": "swapExactTokenForEth",
      "outputs": [],
      "stateMutability": "nonpayable",
      "type": "function"
    }
  ],
  "bytecode": "0x60e060405234801561001057600080fd5b5060405161111238038061111283398101604081905261002f91610067565b6001600160a01b03908116608081905260c0521660a05261009a565b80516001600160a01b038116811461006257600080fd5b919050565b6000806040838503121561007a57600080fd5b6100838361004b565b91506100916020840161004b565b90509250929050565b60805160a05160c051610fcc6101466000396000818160bf01528181610186015281816102c60152818161037a015281816104490152818161072e015281816107cd015281816109b301528181610b0f01528181610bd70152610ce80152600081816101290152818161021c015281816105ba01526108cc01526000818161015d015281816105e901528181610688015281816108fb01528181610a660152610c060152610fcc6000f3fe6080604052600436106100605760003560e01c8063422f1043146100655780636e5089b81461007a578063758e0bc71461009a5780638acee3cf146100ad5780639c8f9f23146100f7578063e48575d414610117578063f5ae497a1461014b575b600080fd5b610078610073366004610d6e565b61017f565b005b34801561008657600080fd5b50610078610095366004610d9a565b6108b2565b6100786100a8366004610dbc565b610a62565b3480156100b957600080fd5b506100e17f000000000000000000000000000000000000000000000000000000000000000081565b6040516100ee9190610dd5565b60405180910390f35b34801561010357600080fd5b50610078610112366004610dbc565b610bbd565b34801561012357600080fd5b506100e17f000000000000000000000000000000000000000000000000000000000000000081565b34801561015757600080fd5b506100e17f000000000000000000000000000000000000000000000000000000000000000081565b60008060007f00000000000000000000000000000000000000000000000000000000000000006001600160a01b03166318160ddd6040518163ffffffff1660e01b815260040160206040518083038186803b1580156101dd57600080fd5b505afa1580156101f1573d6000803e3d6000fd5b505050506040513d601f19601f820116820180604052508101906102159190610de9565b15610599577f00000000000000000000000000000000000000000000000000000000000000006001600160a01b031663fb4b0d686040518163ffffffff1660e01b815260040160206040518083038186803b15801561027357600080fd5b505afa158015610287573d6000803e3d6000fd5b505050506040513d601f19601f820116820180604052508101906102ab9190610e02565b61035557604051636af1e29760e01b81526001600160a01b037f00000000000000000000000000000000000000000000000000000000000000001690636af1e297906102fe908990600190600401610e2b565b60206040518083038186803b15801561031657600080fd5b505afa15801561032a573d6000803e3d6000fd5b505050506040513d601f19601f8201168201806040525081019061034e9190610de9565b905061041c565b60006064610364886002610e51565b61036e9190610e70565b90506001600160a01b037f000000000000000000000000000000000000000000000000000000000000000016636af1e2976103a9838a610e92565b60016040518363ffffffff1660e01b81526004016103c8929190610e2b565b60206040518083038186803b1580156103e057600080fd5b505afa1580156103f4573d6000803e3d6000fd5b505050506040513d601f19601f820116820180604052508101906104189190610de9565b9150505b3481101561042f578592508091506104d7565b604051636af1e29760e01b81526000906001600160a01b037f00000000000000000000000000000000000000000000000000000000000000001690636af1e297906104809034908590600401610e2b565b60206040518083038186803b15801561049857600080fd5b505afa1580156104ac573d6000803e3d6000fd5b505050506040513d601f19601f820116820180604052508101906104d09190610de9565b9350349250505b848310156105385760405162461bcd60e51b8152602060048201526024808201527f5370616365526f757465723a20494e53554646494349454e545f5350435f414d60448201526313d5539560e21b60648201526084015b60405180910390fd5b838210156105945760405162461bcd60e51b8152602060048201526024808201527f5370616365526f757465723a20494e53554646494349454e545f4554485f414d60448201526313d5539560e21b606482015260840161052f565b6105a0565b3491508592505b6040516323b872dd60e01b81526000906001600160a01b037f000000000000000000000000000000000000000000000000000000000000000016906323b872dd906106139033907f0000000000000000000000000000000000000000000000000000000000000000908990600401610ea9565b602060405180830381600087803b15801561062d57600080fd5b505af1158015610641573d6000803e3d6000fd5b505050506040513d601f19601f820116820180604052508101906106659190610e02565b9050806106845760405162461bcd60e51b815260040161052f90610ecd565b60007f00000000000000000000000000000000000000000000000000000000000000006001600160a01b03168460405160006040518083038185875af1925050503d80600081146106f1576040519150601f19603f3d011682016040523d82523d6000602084013e6106f6565b606091505b50509050806107175760405162461bcd60e51b815260040161052f90610efd565b6040516335313c2160e11b81526001600160a01b037f00000000000000000000000000000000000000000000000000000000000000001690636a62784290610763903390600401610dd5565b602060405180830381600087803b15801561077d57600080fd5b505af1158015610791573d6000803e3d6000fd5b505050506040513d601f19601f820116820180604052508101906107b59190610de9565b5060405163bc25cf7760e01b81526001600160a01b037f0000000000000000000000000000000000000000000000000000000000000000169063bc25cf7790610802903390600401610dd5565b600060405180830381600087803b15801561081c57600080fd5b505af1158015610830573d6000803e3d6000fd5b5047925050811590506108a757604051600090339083908381818185875af1925050503d806000811461087f576040519150601f19603f3d011682016040523d82523d6000602084013e610884565b606091505b50509050806108a55760405162461bcd60e51b815260040161052f90610efd565b505b505050505050505050565b6040516323b872dd60e01b81526000906001600160a01b037f000000000000000000000000000000000000000000000000000000000000000016906323b872dd906109259033907f0000000000000000000000000000000000000000000000000000000000000000908890600401610ea9565b602060405180830381600087803b15801561093f57600080fd5b505af1158015610953573d6000803e3d6000fd5b505050506040513d601f19601f820116820180604052508101906109779190610e02565b9050806109965760405162461bcd60e51b815260040161052f90610ecd565b604051600162fc16ad60e01b031981526000906001600160a01b037f0000000000000000000000000000000000000000000000000000000000000000169063ff03e953906109e8903390600401610dd5565b602060405180830381600087803b158015610a0257600080fd5b505af1158015610a16573d6000803e3d6000fd5b505050506040513d601f19601f82011682018060405250810190610a3a9190610de9565b905082811015610a5c5760405162461bcd60e51b815260040161052f90610f2b565b50505050565b60007f00000000000000000000000000000000000000000000000000000000000000006001600160a01b03163460405160006040518083038185875af1925050503d8060008114610acf576040519150601f19603f3d011682016040523d82523d6000602084013e610ad4565b606091505b5050905080610af55760405162461bcd60e51b815260040161052f90610efd565b604051634d107dad60e11b81526000906001600160a01b037f00000000000000000000000000000000000000000000000000000000000000001690639a20fb5a90610b44903390600401610dd5565b602060405180830381600087803b158015610b5e57600080fd5b505af1158015610b72573d6000803e3d6000fd5b505050506040513d601f19601f82011682018060405250810190610b969190610de9565b905082811015610bb85760405162461bcd60e51b815260040161052f90610f2b565b505050565b6040516323b872dd60e01b81526000906001600160a01b037f000000000000000000000000000000000000000000000000000000000000000016906323b872dd90610c309033907f0000000000000000000000000000000000000000000000000000000000000000908790600401610ea9565b602060405180830381600087803b158015610c4a57600080fd5b505af1158015610c5e573d6000803e3d6000fd5b505050506040513d601f19601f82011682018060405250810190610c829190610e02565b905080610cd15760405162461bcd60e51b815260206004820152601d60248201527f636f756c64206e6f74207472616e73666572205350432d455448204c50000000604482015260640161052f565b60405163226bf2d160e21b81526001600160a01b037f000000000000000000000000000000000000000000000000000000000000000016906389afcb4490610d1d903390600401610dd5565b6040805180830381600087803b158015610d3657600080fd5b505af1158015610d4a573d6000803e3d6000fd5b505050506040513d601f19601f82011682018060405250810190610a5c9190610f72565b600080600060608486031215610d8357600080fd5b505081359360208301359350604090920135919050565b60008060408385031215610dad57600080fd5b50508035926020909101359150565b600060208284031215610dce57600080fd5b5035919050565b6001600160a01b0391909116815260200190565b600060208284031215610dfb57600080fd5b5051919050565b600060208284031215610e1457600080fd5b81518015158114610e2457600080fd5b9392505050565b9182521515602082015260400190565b634e487b7160e01b600052601160045260246000fd5b6000816000190483118215151615610e6b57610e6b610e3b565b500290565b600082610e8d57634e487b7160e01b600052601260045260246000fd5b500490565b600082821015610ea457610ea4610e3b565b500390565b6001600160a01b039384168152919092166020820152604081019190915260600190565b602080825260169082015275636f756c64206e6f74207472616e736665722053504360501b604082015260600190565b6020808252601490820152732330b4b632b2103a379039b2b7321022ba3432b960611b604082015260600190565b60208082526027908201527f5370616365526f757465723a20494e53554646494349454e545f4f555450555460408201526617d05353d5539560ca1b606082015260800190565b60008060408385031215610f8557600080fd5b50508051602090910151909290915056fea264697066735822122083a33a7c388e1b570a8854d482c791325e8a3bbbffa285a1730401342012b42c64736f6c63430008090033",
  "linkReferences": {},
  "deployedLinkReferences": {}
}